{
  "contractName": "TornadoElection",
  "abi": [
    {
      "inputs": [
        {
          "internalType": "contract IVerifier",
          "name": "_verifier",
          "type": "address"
        },
        {
          "internalType": "uint32",
          "name": "_merkleTreeHeight",
          "type": "uint32"
        },
        {
          "internalType": "address",
          "name": "_operator",
          "type": "address"
        },
        {
          "internalType": "address",
          "name": "_voteContractAddress",
          "type": "address"
        }
      ],
      "payable": false,
      "stateMutability": "nonpayable",
      "type": "constructor"
    },
    {
      "anonymous": false,
      "inputs": [
        {
          "indexed": false,
          "internalType": "uint256",
          "name": "electionId",
          "type": "uint256"
        },
        {
          "indexed": false,
          "internalType": "uint256",
          "name": "candidateId",
          "type": "uint256"
        },
        {
          "indexed": false,
          "internalType": "bytes32",
          "name": "nullifierHash",
          "type": "bytes32"
        }
      ],
      "name": "Vote",
      "type": "event"
    },
    {
      "anonymous": false,
      "inputs": [
        {
          "indexed": true,
          "internalType": "bytes32",
          "name": "commitment",
          "type": "bytes32"
        },
        {
          "indexed": false,
          "internalType": "uint32",
          "name": "leafIndex",
          "type": "uint32"
        },
        {
          "indexed": false,
          "internalType": "uint256",
          "name": "electionId",
          "type": "uint256"
        },
        {
          "indexed": false,
          "internalType": "uint256",
          "name": "timestamp",
          "type": "uint256"
        }
      ],
      "name": "VotingToken",
      "type": "event"
    },
    {
      "constant": true,
      "inputs": [],
      "name": "FIELD_SIZE",
      "outputs": [
        {
          "internalType": "uint256",
          "name": "",
          "type": "uint256"
        }
      ],
      "payable": false,
      "stateMutability": "view",
      "type": "function"
    },
    {
      "constant": true,
      "inputs": [],
      "name": "ROOT_HISTORY_SIZE",
      "outputs": [
        {
          "internalType": "uint32",
          "name": "",
          "type": "uint32"
        }
      ],
      "payable": false,
      "stateMutability": "view",
      "type": "function"
    },
    {
      "constant": true,
      "inputs": [],
      "name": "ZERO_VALUE",
      "outputs": [
        {
          "internalType": "uint256",
          "name": "",
          "type": "uint256"
        }
      ],
      "payable": false,
      "stateMutability": "view",
      "type": "function"
    },
    {
      "constant": true,
      "inputs": [
        {
          "internalType": "bytes32",
          "name": "",
          "type": "bytes32"
        }
      ],
      "name": "commitments",
      "outputs": [
        {
          "internalType": "bool",
          "name": "",
          "type": "bool"
        }
      ],
      "payable": false,
      "stateMutability": "view",
      "type": "function"
    },
    {
      "constant": true,
      "inputs": [],
      "name": "currentRootIndex",
      "outputs": [
        {
          "internalType": "uint32",
          "name": "",
          "type": "uint32"
        }
      ],
      "payable": false,
      "stateMutability": "view",
      "type": "function"
    },
    {
      "constant": true,
      "inputs": [],
      "name": "denomination",
      "outputs": [
        {
          "internalType": "uint256",
          "name": "",
          "type": "uint256"
        }
      ],
      "payable": false,
      "stateMutability": "view",
      "type": "function"
    },
    {
      "constant": true,
      "inputs": [
        {
          "internalType": "uint256",
          "name": "",
          "type": "uint256"
        }
      ],
      "name": "filledSubtrees",
      "outputs": [
        {
          "internalType": "bytes32",
          "name": "",
          "type": "bytes32"
        }
      ],
      "payable": false,
      "stateMutability": "view",
      "type": "function"
    },
    {
      "constant": true,
      "inputs": [],
      "name": "getLastRoot",
      "outputs": [
        {
          "internalType": "bytes32",
          "name": "",
          "type": "bytes32"
        }
      ],
      "payable": false,
      "stateMutability": "view",
      "type": "function"
    },
    {
      "constant": true,
      "inputs": [
        {
          "internalType": "bytes32",
          "name": "_left",
          "type": "bytes32"
        },
        {
          "internalType": "bytes32",
          "name": "_right",
          "type": "bytes32"
        }
      ],
      "name": "hashLeftRight",
      "outputs": [
        {
          "internalType": "bytes32",
          "name": "",
          "type": "bytes32"
        }
      ],
      "payable": false,
      "stateMutability": "pure",
      "type": "function"
    },
    {
      "constant": true,
      "inputs": [
        {
          "internalType": "bytes32",
          "name": "_root",
          "type": "bytes32"
        }
      ],
      "name": "isKnownRoot",
      "outputs": [
        {
          "internalType": "bool",
          "name": "",
          "type": "bool"
        }
      ],
      "payable": false,
      "stateMutability": "view",
      "type": "function"
    },
    {
      "constant": true,
      "inputs": [],
      "name": "levels",
      "outputs": [
        {
          "internalType": "uint32",
          "name": "",
          "type": "uint32"
        }
      ],
      "payable": false,
      "stateMutability": "view",
      "type": "function"
    },
    {
      "constant": true,
      "inputs": [],
      "name": "nextIndex",
      "outputs": [
        {
          "internalType": "uint32",
          "name": "",
          "type": "uint32"
        }
      ],
      "payable": false,
      "stateMutability": "view",
      "type": "function"
    },
    {
      "constant": true,
      "inputs": [
        {
          "internalType": "bytes32",
          "name": "",
          "type": "bytes32"
        }
      ],
      "name": "nullifierHashes",
      "outputs": [
        {
          "internalType": "bool",
          "name": "",
          "type": "bool"
        }
      ],
      "payable": false,
      "stateMutability": "view",
      "type": "function"
    },
    {
      "constant": true,
      "inputs": [],
      "name": "operator",
      "outputs": [
        {
          "internalType": "address",
          "name": "",
          "type": "address"
        }
      ],
      "payable": false,
      "stateMutability": "view",
      "type": "function"
    },
    {
      "constant": true,
      "inputs": [
        {
          "internalType": "uint256",
          "name": "",
          "type": "uint256"
        }
      ],
      "name": "roots",
      "outputs": [
        {
          "internalType": "bytes32",
          "name": "",
          "type": "bytes32"
        }
      ],
      "payable": false,
      "stateMutability": "view",
      "type": "function"
    },
    {
      "constant": true,
      "inputs": [],
      "name": "verifier",
      "outputs": [
        {
          "internalType": "contract IVerifier",
          "name": "",
          "type": "address"
        }
      ],
      "payable": false,
      "stateMutability": "view",
      "type": "function"
    },
    {
      "constant": true,
      "inputs": [
        {
          "internalType": "uint256",
          "name": "",
          "type": "uint256"
        }
      ],
      "name": "zeros",
      "outputs": [
        {
          "internalType": "bytes32",
          "name": "",
          "type": "bytes32"
        }
      ],
      "payable": false,
      "stateMutability": "view",
      "type": "function"
    },
    {
      "constant": false,
      "inputs": [
        {
          "internalType": "bytes32",
          "name": "_commitment",
          "type": "bytes32"
        },
        {
          "internalType": "uint256",
          "name": "electionId",
          "type": "uint256"
        }
      ],
      "name": "registerVoteToken",
      "outputs": [],
      "payable": true,
      "stateMutability": "payable",
      "type": "function"
    },
    {
      "constant": false,
      "inputs": [
        {
          "internalType": "bytes",
          "name": "_proof",
          "type": "bytes"
        },
        {
          "internalType": "bytes32",
          "name": "_root",
          "type": "bytes32"
        },
        {
          "internalType": "bytes32",
          "name": "_nullifierHash",
          "type": "bytes32"
        },
        {
          "internalType": "uint256",
          "name": "_electionId",
          "type": "uint256"
        },
        {
          "internalType": "uint256",
          "name": "_candidateId",
          "type": "uint256"
        }
      ],
      "name": "vote",
      "outputs": [],
      "payable": true,
      "stateMutability": "payable",
      "type": "function"
    },
    {
      "constant": true,
      "inputs": [
        {
          "internalType": "bytes32",
          "name": "_nullifierHash",
          "type": "bytes32"
        }
      ],
      "name": "isSpent",
      "outputs": [
        {
          "internalType": "bool",
          "name": "",
          "type": "bool"
        }
      ],
      "payable": false,
      "stateMutability": "view",
      "type": "function"
    },
    {
      "constant": true,
      "inputs": [
        {
          "internalType": "bytes32[]",
          "name": "_nullifierHashes",
          "type": "bytes32[]"
        }
      ],
      "name": "isSpentArray",
      "outputs": [
        {
          "internalType": "bool[]",
          "name": "spent",
          "type": "bool[]"
        }
      ],
      "payable": false,
      "stateMutability": "view",
      "type": "function"
    },
    {
      "constant": false,
      "inputs": [
        {
          "internalType": "address",
          "name": "_newVerifier",
          "type": "address"
        }
      ],
      "name": "updateVerifier",
      "outputs": [],
      "payable": false,
      "stateMutability": "nonpayable",
      "type": "function"
    },
    {
      "constant": false,
      "inputs": [
        {
          "internalType": "address",
          "name": "_newOperator",
          "type": "address"
        }
      ],
      "name": "changeOperator",
      "outputs": [],
      "payable": false,
      "stateMutability": "nonpayable",
      "type": "function"
    }
  ],
  "bytecode": "0x6080604052600380546001600160401b03191690553480156200002157600080fd5b506040516200171738038062001717833981810160405260808110156200004757600080fd5b50805160208201516040830151606090930151919290918263ffffffff8116620000a35760405162461bcd60e51b81526004018080602001828103825260278152602001806200168e6027913960400191505060405180910390fd5b60208163ffffffff1610620000ea5760405162461bcd60e51b8152600401808060200182810382526022815260200180620016d56022913960400191505060405180910390fd5b6000805463ffffffff191663ffffffff83161781556002805460018181019092557f2fe54c60d3acabf3343a35b6eba15db4821b340f76e741e2249685ed4899af6c6000805160206200164d8339815191529091018190558154808301835592829052600080516020620016f78339815191529092018290555b60005463ffffffff9081169082161015620001d8576200018e82806001600160e01b036200023d16565b6002805460018181019092556000805160206200164d83398151915201829055805480820182556000829052600080516020620016f7833981519152018290559092500162000164565b50620001ee81806001600160e01b036200023d16565b60045550506001606855606d80546001600160a01b039586166001600160a01b031991821617909155606e8054938616938216939093179092556069805491909416911617909155506200042a565b6000600080516020620016b58339815191528310620002a3576040805162461bcd60e51b815260206004820181905260248201527f5f6c6566742073686f756c6420626520696e7369646520746865206669656c64604482015290519081900360640190fd5b600080516020620016b58339815191528210620002f25760405162461bcd60e51b81526004018080602001828103825260218152602001806200166d6021913960400191505060405180910390fd5b6040805163f47d33b560e01b81526004810185905260006024820181905282518693919273__Hasher________________________________9263f47d33b592604480840193829003018186803b1580156200034d57600080fd5b505af415801562000362573d6000803e3d6000fd5b505050506040513d60408110156200037957600080fd5b5080516020909101519092509050600080516020620016b5833981519152848308915073__Hasher________________________________63f47d33b583836040518363ffffffff1660e01b81526004018083815260200182815260200192505050604080518083038186803b158015620003f357600080fd5b505af415801562000408573d6000803e3d6000fd5b505050506040513d60408110156200041f57600080fd5b505195945050505050565b611213806200043a6000396000f3fe6080604052600436106101405760003560e01c806397fc007c116100b6578063e82955881161006f578063e82955881461047d578063ec732959146104a7578063ed392eff146104bc578063ef6d44051461053c578063f178e47c1461055f578063fc7e9c6f1461058957610140565b806397fc007c146103015780639fa12d0b14610334578063ba70f757146103ff578063c2b40ae414610414578063cd87a3b41461043e578063e5285dcc1461045357610140565b80634ecf518b116101085780634ecf518b14610240578063570ca7351461026e5780636d9833e314610283578063839df945146102ad5780638bca6d16146102d757806390eeb02b146102ec57610140565b806306394c9b1461014557806317cc915c1461017a5780632b7ac3f3146101b857806338bf282e146101e9578063414a37ba1461022b575b600080fd5b34801561015157600080fd5b506101786004803603602081101561016857600080fd5b50356001600160a01b031661059e565b005b34801561018657600080fd5b506101a46004803603602081101561019d57600080fd5b5035610609565b604080519115158252519081900360200190f35b3480156101c457600080fd5b506101cd61061e565b604080516001600160a01b039092168252519081900360200190f35b3480156101f557600080fd5b506102196004803603604081101561020c57600080fd5b508035906020013561062d565b60408051918252519081900360200190f35b34801561023757600080fd5b5061021961080e565b34801561024c57600080fd5b50610255610820565b6040805163ffffffff9092168252519081900360200190f35b34801561027a57600080fd5b506101cd61082c565b34801561028f57600080fd5b506101a4600480360360208110156102a657600080fd5b503561083b565b3480156102b957600080fd5b506101a4600480360360208110156102d057600080fd5b50356108ae565b3480156102e357600080fd5b506102196108c3565b3480156102f857600080fd5b506102556108c9565b34801561030d57600080fd5b506101786004803603602081101561032457600080fd5b50356001600160a01b03166108d5565b34801561034057600080fd5b506103af6004803603602081101561035757600080fd5b810190602081018135600160201b81111561037157600080fd5b82018360208201111561038357600080fd5b803590602001918460208302840111600160201b831117156103a457600080fd5b509092509050610940565b60408051602080825283518183015283519192839290830191858101910280838360005b838110156103eb5781810151838201526020016103d3565b505050509050019250505060405180910390f35b34801561040b57600080fd5b506102196109c8565b34801561042057600080fd5b506102196004803603602081101561043757600080fd5b50356109e8565b34801561044a57600080fd5b506102556109fc565b34801561045f57600080fd5b506101a46004803603602081101561047657600080fd5b5035610a01565b34801561048957600080fd5b50610219600480360360208110156104a057600080fd5b5035610a16565b3480156104b357600080fd5b50610219610a34565b610178600480360360a08110156104d257600080fd5b810190602081018135600160201b8111156104ec57600080fd5b8201836020820111156104fe57600080fd5b803590602001918460018302840111600160201b8311171561051f57600080fd5b919350915080359060208101359060408101359060600135610a58565b6101786004803603604081101561055257600080fd5b5080359060200135610d42565b34801561056b57600080fd5b506102196004803603602081101561058257600080fd5b5035610e6e565b34801561059557600080fd5b50610255610e7b565b606e546001600160a01b031633146105e75760405162461bcd60e51b81526004018080602001828103825260258152602001806111ba6025913960400191505060405180910390fd5b606e80546001600160a01b0319166001600160a01b0392909216919091179055565b606b6020526000908152604090205460ff1681565b606d546001600160a01b031681565b60006000805160206111798339815191528310610691576040805162461bcd60e51b815260206004820181905260248201527f5f6c6566742073686f756c6420626520696e7369646520746865206669656c64604482015290519081900360640190fd5b60008051602061117983398151915282106106dd5760405162461bcd60e51b81526004018080602001828103825260218152602001806111586021913960400191505060405180910390fd5b6040805163f47d33b560e01b81526004810185905260006024820181905282518693919273__Hasher________________________________9263f47d33b592604480840193829003018186803b15801561073757600080fd5b505af415801561074b573d6000803e3d6000fd5b505050506040513d604081101561076157600080fd5b5080516020909101519092509050600080516020611179833981519152848308915073__Hasher________________________________63f47d33b583836040518363ffffffff1660e01b81526004018083815260200182815260200192505050604080518083038186803b1580156107d957600080fd5b505af41580156107ed573d6000803e3d6000fd5b505050506040513d604081101561080357600080fd5b505195945050505050565b60008051602061117983398151915281565b60005463ffffffff1681565b606e546001600160a01b031681565b60008161084a575060006108a9565b60035463ffffffff165b60048163ffffffff166064811061086757fe5b015483141561087a5760019150506108a9565b63ffffffff8116610889575060645b6003546000199091019063ffffffff808316911614156108545760009150505b919050565b606c6020526000908152604090205460ff1681565b606a5481565b60035463ffffffff1681565b606e546001600160a01b0316331461091e5760405162461bcd60e51b81526004018080602001828103825260258152602001806111ba6025913960400191505060405180910390fd5b606d80546001600160a01b0319166001600160a01b0392909216919091179055565b60408051828152602080840282010190915260609082801561096c578160200160208202803883390190505b50905060005b828110156109c15761099584848381811061098957fe5b90506020020135610a01565b156109b95760018282815181106109a857fe5b911515602092830291909101909101525b600101610972565b5092915050565b60035460009060049063ffffffff16606481106109e157fe5b0154905090565b600481606481106109f557fe5b0154905081565b606481565b6000908152606b602052604090205460ff1690565b60028181548110610a2357fe5b600091825260209091200154905081565b7f2fe54c60d3acabf3343a35b6eba15db4821b340f76e741e2249685ed4899af6c81565b60688054600101908190556000848152606b602052604090205460ff1615610ac7576040805162461bcd60e51b815260206004820152601f60248201527f546865206e6f746520686173206265656e20616c7265616479207370656e7400604482015290519081900360640190fd5b610ad08561083b565b610b21576040805162461bcd60e51b815260206004820152601c60248201527f43616e6e6f742066696e6420796f7572206d65726b6c6520726f6f7400000000604482015290519081900360640190fd5b606d60009054906101000a90046001600160a01b03166001600160a01b031663695ef6f988886040518060c001604052808a60001c81526020018960001c8152602001888152602001600081526020016000815260200160008152506040518463ffffffff1660e01b8152600401808060200183600660200280838360005b83811015610bb8578181015183820152602001610ba0565b505050509050018281038252858582818152602001925080828437600081840152601f19601f820116905080830192505050945050505050602060405180830381600087803b158015610c0a57600080fd5b505af1158015610c1e573d6000803e3d6000fd5b505050506040513d6020811015610c3457600080fd5b5051610c80576040805162461bcd60e51b815260206004820152601660248201527524b73b30b634b2103bb4ba34323930bb90383937b7b360511b604482015290519081900360640190fd5b6000848152606b60205260409020805460ff19166001179055610ca38383610e8e565b604080518481526020810184905280820186905290517f0d0ab89a742ae7d42735c8536699c80a563f15637983f1f266504055522f6c5d9181900360600190a16068548114610d39576040805162461bcd60e51b815260206004820152601f60248201527f5265656e7472616e637947756172643a207265656e7472616e742063616c6c00604482015290519081900360640190fd5b50505050505050565b60688054600101908190556000838152606c602052604090205460ff1615610d9b5760405162461bcd60e51b81526004018080602001828103825260218152602001806111996021913960400191505060405180910390fd5b6000610da684610f13565b6000858152606c60205260409020805460ff191660011790559050610dca836110aa565b6040805163ffffffff83168152602081018590524281830152905185917f4a0ca0756789c6eb61c55f69381c8eb2239e95166e36a3b415ee13ebb386065b919081900360600190a2506068548114610e69576040805162461bcd60e51b815260206004820152601f60248201527f5265656e7472616e637947756172643a207265656e7472616e742063616c6c00604482015290519081900360640190fd5b505050565b60018181548110610a2357fe5b600354600160201b900463ffffffff1681565b6069546040805163b384abef60e01b8152600481018590526024810184905290516001600160a01b039092169163b384abef916044808201926020929091908290030181600087803b158015610ee357600080fd5b505af1158015610ef7573d6000803e3d6000fd5b505050506040513d6020811015610f0d57600080fd5b50505050565b60035460008054909163ffffffff600160201b909104811691811660020a16811415610f705760405162461bcd60e51b815260040180806020018281038252602f815260200180611129602f913960400191505060405180910390fd5b6003805463ffffffff600160201b80830482166001019091160267ffffffff000000001990911617905582600080805b60005463ffffffff908116908216101561104857600185166110045783925060028163ffffffff1681548110610fd257fe5b906000526020600020015491508360018263ffffffff1681548110610ff357fe5b600091825260209091200155611028565b60018163ffffffff168154811061101757fe5b906000526020600020015492508391505b611032838361062d565b9350600263ffffffff8616049450600101610fa0565b5060035460649063ffffffff908116600101166003805463ffffffff19169290910663ffffffff90811692909217908190558491600491166064811061108a57fe5b01555050600354600160201b900463ffffffff1660001901949350505050565b606954604080516331c0891160e01b81526004810184905233602482015290516001600160a01b03909216916331c08911916044808201926020929091908290030181600087803b1580156110fe57600080fd5b505af1158015611112573d6000803e3d6000fd5b505050506040513d6020811015610e6957600080fdfe4d65726b6c6520747265652069732066756c6c2e204e6f206d6f7265206c656166732063616e2062652061646465645f72696768742073686f756c6420626520696e7369646520746865206669656c6430644e72e131a029b85045b68181585d2833e84879b9709143e1f593f000000154686520636f6d6d69746d656e7420686173206265656e207375626d69747465644f6e6c79206f70657261746f722063616e2063616c6c20746869732066756e6374696f6e2ea265627a7a72315820ad434f2c152a424893fe61f164ea7b200d7d6d51c6eda8c45f8e2c428c84824264736f6c63430005110032405787fa12a823e0f2b7631cc41b3ba8828b3321ca811111fa75cd3aa3bb5ace5f72696768742073686f756c6420626520696e7369646520746865206669656c645f747265654c6576656c732073686f756c642062652067726561746572207468616e207a65726f30644e72e131a029b85045b68181585d2833e84879b9709143e1f593f00000015f747265654c6576656c732073686f756c64206265206c657373207468616e203332b10e2d527612073b26eecdfd717e6a320cf44b4afac2b0732d9fcbe2b7fa0cf6",
  "source": "// https://tornado.cash\n/*\n * d888888P                                           dP              a88888b.                   dP\n *    88                                              88             d8'   `88                   88\n *    88    .d8888b. 88d888b. 88d888b. .d8888b. .d888b88 .d8888b.    88        .d8888b. .d8888b. 88d888b.\n *    88    88'  `88 88'  `88 88'  `88 88'  `88 88'  `88 88'  `88    88        88'  `88 Y8ooooo. 88'  `88\n *    88    88.  .88 88       88    88 88.  .88 88.  .88 88.  .88 dP Y8.   .88 88.  .88       88 88    88\n *    dP    `88888P' dP       dP    dP `88888P8 `88888P8 `88888P' 88  Y88888P' `88888P8 `88888P' dP    dP\n * ooooooooooooooooooooooooooooooooooooooooooooooooooooooooooooooooooooooooooooooooooooooooooooooooooooooo\n */\n\npragma solidity 0.5.17;\n\nimport \"./MerkleTreeWithHistory.sol\";\nimport \"@openzeppelin/contracts/utils/ReentrancyGuard.sol\";\nimport \"./Vote.sol\";\n\ninterface Voting {\n    function setVoteTokenReceived(uint256 votingId, address voterAddress)\n        external\n        returns (bool);\n\n    function vote(uint256 votingId, uint256 candidateId) \n        external \n        returns (bool);\n}\n\ncontract IVerifier {\n    function verifyProof(bytes memory _proof, uint256[6] memory _input)\n        public\n        returns (bool);\n}\n\ncontract TornadoElection is MerkleTreeWithHistory, ReentrancyGuard {\n    address voteContractAddress;\n\n    uint256 public denomination;\n    mapping(bytes32 => bool) public nullifierHashes;\n    // we store all commitments just to prevent accidental deposits with the same commitment\n    mapping(bytes32 => bool) public commitments;\n    IVerifier public verifier;\n\n    // operator can update snark verification key\n    // after the final trusted setup ceremony operator rights are supposed to be transferred to zero address\n    address public operator;\n    modifier onlyOperator {\n        require(\n            msg.sender == operator,\n            \"Only operator can call this function.\"\n        );\n        _;\n    }\n\n    event VotingToken(\n        bytes32 indexed commitment,\n        uint32 leafIndex,\n        uint256 electionId,\n        uint256 timestamp\n    );\n    event Vote(uint256 electionId, uint256 candidateId, bytes32 nullifierHash);\n\n    /**\n    @dev The constructor\n    @param _verifier the address of SNARK verifier for this contract\n    @param _merkleTreeHeight the height of deposits' Merkle Tree\n    @param _operator operator address (see operator comment above)\n  */\n    constructor(\n        IVerifier _verifier,\n        uint32 _merkleTreeHeight,\n        address _operator,\n        address _voteContractAddress\n    ) public MerkleTreeWithHistory(_merkleTreeHeight) {\n        verifier = _verifier;\n        operator = _operator;\n        voteContractAddress = _voteContractAddress;\n    }\n\n    /**\n    @dev Deposit funds into the contract. The caller must send (for ETH) or approve (for ERC20) value equal to or `denomination` of this instance.\n    @param _commitment the note commitment, which is PedersenHash(nullifier + secret)\n  */\n    function registerVoteToken(bytes32 _commitment, uint256 electionId)\n        external\n        payable\n        nonReentrant\n    {\n        require(!commitments[_commitment], \"The commitment has been submitted\");\n\n        uint32 insertedIndex = _insert(_commitment);\n        commitments[_commitment] = true;\n        _processVoteToken(electionId);\n\n        emit VotingToken(\n            _commitment,\n            insertedIndex,\n            electionId,\n            block.timestamp\n        );\n    }\n\n    function _processVoteToken(uint256 electionId) internal {\n        Voting(voteContractAddress).setVoteTokenReceived(electionId, msg.sender);\n    }\n\n\n    /**\n    @dev Withdraw a deposit from the contract. `proof` is a zkSNARK proof data, and input is an array of circuit public inputs\n    `input` array consists of:\n      - merkle root of all deposits in the contract\n      - hash of unique deposit nullifier to prevent double spends\n      - the recipient of funds\n      - optional fee that goes to the transaction sender (usually a relay)\n  */\n    function vote(\n        bytes calldata _proof,\n        bytes32 _root,\n        bytes32 _nullifierHash,\n        uint256 _electionId,\n        uint256 _candidateId\n    ) external payable nonReentrant {\n        require(\n            !nullifierHashes[_nullifierHash],\n            \"The note has been already spent\"\n        );\n        require(isKnownRoot(_root), \"Cannot find your merkle root\"); // Make sure to use a recent one\n        require(\n            verifier.verifyProof(\n                _proof,\n                [uint256(_root), uint256(_nullifierHash), _electionId, 0, 0, 0]\n            ),\n            \"Invalid withdraw proof\"\n        );\n\n        nullifierHashes[_nullifierHash] = true;\n        _processVote(_electionId, _candidateId);\n        emit Vote(_electionId,  _candidateId, _nullifierHash);\n    }\n\n    function _processVote(uint256 electionId, uint256 candidateId) internal {\n        Voting(voteContractAddress).vote(electionId, candidateId);\n    }\n\n    /** @dev whether a note is already spent */\n    function isSpent(bytes32 _nullifierHash) public view returns (bool) {\n        return nullifierHashes[_nullifierHash];\n    }\n\n    /** @dev whether an array of notes is already spent */\n    function isSpentArray(bytes32[] calldata _nullifierHashes)\n        external\n        view\n        returns (bool[] memory spent)\n    {\n        spent = new bool[](_nullifierHashes.length);\n        for (uint256 i = 0; i < _nullifierHashes.length; i++) {\n            if (isSpent(_nullifierHashes[i])) {\n                spent[i] = true;\n            }\n        }\n    }\n\n    /**\n    @dev allow operator to update SNARK verification keys. This is needed to update keys after the final trusted setup ceremony is held.\n    After that operator rights are supposed to be transferred to zero address\n  */\n    function updateVerifier(address _newVerifier) external onlyOperator {\n        verifier = IVerifier(_newVerifier);\n    }\n\n    /** @dev operator can change his address */\n    function changeOperator(address _newOperator) external onlyOperator {\n        operator = _newOperator;\n    }\n}\n",
  "sourcePath": "/home/eduard/2tornadooo/contracts/TornadoElection.sol",
  "compiler": {
    "name": "solc",
    "version": "0.5.17+commit.d19bba13.Emscripten.clang"
  },
  "schemaVersion": "3.4.1",
  "updatedAt": "2021-06-12T20:06:21.056Z",
  "networkType": "ethereum",
  "devdoc": {
    "methods": {
      "changeOperator(address)": {
        "details": "operator can change his address "
      },
      "constructor": {
        "details": "The constructor",
        "params": {
          "_merkleTreeHeight": "the height of deposits' Merkle Tree",
          "_operator": "operator address (see operator comment above)",
          "_verifier": "the address of SNARK verifier for this contract"
        }
      },
      "getLastRoot()": {
        "details": "Returns the last root"
      },
      "hashLeftRight(bytes32,bytes32)": {
        "details": "Hash 2 tree leaves, returns MiMC(_left, _right)"
      },
      "isKnownRoot(bytes32)": {
        "details": "Whether the root is present in the root history"
      },
      "isSpent(bytes32)": {
        "details": "whether a note is already spent "
      },
      "isSpentArray(bytes32[])": {
        "details": "whether an array of notes is already spent "
      },
      "registerVoteToken(bytes32,uint256)": {
        "details": "Deposit funds into the contract. The caller must send (for ETH) or approve (for ERC20) value equal to or `denomination` of this instance.",
        "params": {
          "_commitment": "the note commitment, which is PedersenHash(nullifier + secret)"
        }
      },
      "updateVerifier(address)": {
        "details": "allow operator to update SNARK verification keys. This is needed to update keys after the final trusted setup ceremony is held. After that operator rights are supposed to be transferred to zero address"
      },
      "vote(bytes,bytes32,bytes32,uint256,uint256)": {
        "details": "Withdraw a deposit from the contract. `proof` is a zkSNARK proof data, and input is an array of circuit public inputs `input` array consists of: - merkle root of all deposits in the contract - hash of unique deposit nullifier to prevent double spends - the recipient of funds - optional fee that goes to the transaction sender (usually a relay)"
      }
    }
  },
  "userdoc": {
    "methods": {}
  }
}