{
  "contractName": "Vote",
  "abi": [
    {
      "inputs": [],
      "payable": false,
      "stateMutability": "nonpayable",
      "type": "constructor"
    },
    {
      "anonymous": false,
      "inputs": [
        {
          "indexed": false,
          "internalType": "address",
          "name": "this_address",
          "type": "address"
        }
      ],
      "name": "electionStarted",
      "type": "event"
    },
    {
      "anonymous": false,
      "inputs": [
        {
          "indexed": true,
          "internalType": "uint256",
          "name": "_candidateId",
          "type": "uint256"
        }
      ],
      "name": "votedEvent",
      "type": "event"
    },
    {
      "constant": true,
      "inputs": [
        {
          "internalType": "uint256",
          "name": "",
          "type": "uint256"
        }
      ],
      "name": "elections",
      "outputs": [
        {
          "internalType": "address",
          "name": "authorityAddress",
          "type": "address"
        },
        {
          "internalType": "string",
          "name": "electionName",
          "type": "string"
        },
        {
          "internalType": "string",
          "name": "description",
          "type": "string"
        },
        {
          "internalType": "uint256",
          "name": "endTime",
          "type": "uint256"
        },
        {
          "internalType": "uint256",
          "name": "startTime",
          "type": "uint256"
        },
        {
          "internalType": "uint256",
          "name": "nrOfCandidates",
          "type": "uint256"
        },
        {
          "internalType": "uint256",
          "name": "nrOfAllowedVoters",
          "type": "uint256"
        }
      ],
      "payable": false,
      "stateMutability": "view",
      "type": "function"
    },
    {
      "constant": true,
      "inputs": [],
      "name": "nrOfElections",
      "outputs": [
        {
          "internalType": "uint256",
          "name": "",
          "type": "uint256"
        }
      ],
      "payable": false,
      "stateMutability": "view",
      "type": "function"
    },
    {
      "constant": false,
      "inputs": [
        {
          "internalType": "string",
          "name": "_electionName",
          "type": "string"
        },
        {
          "internalType": "string",
          "name": "_electionDescription",
          "type": "string"
        },
        {
          "internalType": "uint256",
          "name": "_endTime",
          "type": "uint256"
        },
        {
          "internalType": "uint256",
          "name": "_startTime",
          "type": "uint256"
        }
      ],
      "name": "createElection",
      "outputs": [
        {
          "internalType": "uint256",
          "name": "",
          "type": "uint256"
        }
      ],
      "payable": false,
      "stateMutability": "nonpayable",
      "type": "function"
    },
    {
      "constant": true,
      "inputs": [],
      "name": "getNrOfElections",
      "outputs": [
        {
          "internalType": "uint256",
          "name": "",
          "type": "uint256"
        }
      ],
      "payable": false,
      "stateMutability": "view",
      "type": "function"
    },
    {
      "constant": true,
      "inputs": [
        {
          "internalType": "address",
          "name": "voterAddress",
          "type": "address"
        },
        {
          "internalType": "uint256",
          "name": "_electionId",
          "type": "uint256"
        }
      ],
      "name": "isAllowed",
      "outputs": [
        {
          "internalType": "bool",
          "name": "",
          "type": "bool"
        }
      ],
      "payable": false,
      "stateMutability": "view",
      "type": "function"
    },
    {
      "constant": false,
      "inputs": [
        {
          "internalType": "address",
          "name": "voterAddress",
          "type": "address"
        },
        {
          "internalType": "uint256",
          "name": "_electionId",
          "type": "uint256"
        }
      ],
      "name": "addRegisteredVoter",
      "outputs": [],
      "payable": false,
      "stateMutability": "nonpayable",
      "type": "function"
    },
    {
      "constant": false,
      "inputs": [
        {
          "internalType": "string",
          "name": "_name",
          "type": "string"
        },
        {
          "internalType": "uint256",
          "name": "_electionId",
          "type": "uint256"
        }
      ],
      "name": "addCandidate",
      "outputs": [],
      "payable": false,
      "stateMutability": "nonpayable",
      "type": "function"
    },
    {
      "constant": true,
      "inputs": [
        {
          "internalType": "uint256",
          "name": "electionId",
          "type": "uint256"
        },
        {
          "internalType": "address",
          "name": "add",
          "type": "address"
        }
      ],
      "name": "getAllowed",
      "outputs": [
        {
          "internalType": "bool",
          "name": "",
          "type": "bool"
        }
      ],
      "payable": false,
      "stateMutability": "view",
      "type": "function"
    },
    {
      "constant": true,
      "inputs": [
        {
          "internalType": "uint256",
          "name": "electionId",
          "type": "uint256"
        },
        {
          "internalType": "uint256",
          "name": "candidateId",
          "type": "uint256"
        }
      ],
      "name": "getCandidates",
      "outputs": [
        {
          "internalType": "string",
          "name": "",
          "type": "string"
        }
      ],
      "payable": false,
      "stateMutability": "view",
      "type": "function"
    },
    {
      "constant": true,
      "inputs": [
        {
          "internalType": "uint256",
          "name": "electionId",
          "type": "uint256"
        },
        {
          "internalType": "uint256",
          "name": "candidateId",
          "type": "uint256"
        }
      ],
      "name": "getVoteCount",
      "outputs": [
        {
          "internalType": "uint256",
          "name": "",
          "type": "uint256"
        }
      ],
      "payable": false,
      "stateMutability": "view",
      "type": "function"
    },
    {
      "constant": false,
      "inputs": [
        {
          "internalType": "uint256",
          "name": "electionId",
          "type": "uint256"
        },
        {
          "internalType": "address",
          "name": "voterAddress",
          "type": "address"
        }
      ],
      "name": "setVoteTokenReceived",
      "outputs": [
        {
          "internalType": "bool",
          "name": "",
          "type": "bool"
        }
      ],
      "payable": false,
      "stateMutability": "nonpayable",
      "type": "function"
    },
    {
      "constant": true,
      "inputs": [
        {
          "internalType": "uint256",
          "name": "electionId",
          "type": "uint256"
        },
        {
          "internalType": "address",
          "name": "voterAddress",
          "type": "address"
        }
      ],
      "name": "receivedToken",
      "outputs": [
        {
          "internalType": "bool",
          "name": "",
          "type": "bool"
        }
      ],
      "payable": false,
      "stateMutability": "view",
      "type": "function"
    },
    {
      "constant": false,
      "inputs": [
        {
          "internalType": "uint256",
          "name": "_electionId",
          "type": "uint256"
        },
        {
          "internalType": "uint256",
          "name": "_candidateId",
          "type": "uint256"
        }
      ],
      "name": "vote",
      "outputs": [
        {
          "internalType": "bool",
          "name": "",
          "type": "bool"
        }
      ],
      "payable": false,
      "stateMutability": "nonpayable",
      "type": "function"
    }
  ],
  "bytecode": "0x608060405234801561001057600080fd5b5060018055610f05806100246000396000f3fe608060405234801561001057600080fd5b50600436106100cf5760003560e01c806394521a3a1161008c578063c504402011610066578063c5044020146104ad578063de2e19a0146104d9578063e23cec7b146104fc578063f8350ed0146105a4576100cf565b806394521a3a146103c6578063a151bc22146103f2578063b384abef1461048a576100cf565b806319e3ec77146100d45780631cbcf99f1461010257806331c089111461011c578063367a52261461015c5780635e6fef01146101645780637ad36e8414610294575b600080fd5b610100600480360360408110156100ea57600080fd5b506001600160a01b0381351690602001356105d0565b005b61010a610671565b60408051918252519081900360200190f35b6101486004803603604081101561013257600080fd5b50803590602001356001600160a01b0316610678565b604080519115158252519081900360200190f35b61010a61078a565b6101816004803603602081101561017a57600080fd5b5035610790565b60405180886001600160a01b03166001600160a01b031681526020018060200180602001878152602001868152602001858152602001848152602001838103835289818151815260200191508051906020019080838360005b838110156101f25781810151838201526020016101da565b50505050905090810190601f16801561021f5780820380516001836020036101000a031916815260200191505b5083810382528851815288516020918201918a019080838360005b8381101561025257818101518382015260200161023a565b50505050905090810190601f16801561027f5780820380516001836020036101000a031916815260200191505b50995050505050505050505060405180910390f35b61010a600480360360808110156102aa57600080fd5b8101906020810181356401000000008111156102c557600080fd5b8201836020820111156102d757600080fd5b803590602001918460018302840111640100000000831117156102f957600080fd5b91908080601f016020809104026020016040519081016040528093929190818152602001838380828437600092019190915250929594936020810193503591505064010000000081111561034c57600080fd5b82018360208201111561035e57600080fd5b8035906020019184600183028401116401000000008311171561038057600080fd5b91908080601f01602080910402602001604051908101604052809392919081815260200183838082843760009201919091525092955050823593505050602001356108eb565b610148600480360360408110156103dc57600080fd5b50803590602001356001600160a01b03166109bd565b6104156004803603604081101561040857600080fd5b50803590602001356109ea565b6040805160208082528351818301528351919283929083019185019080838360005b8381101561044f578181015183820152602001610437565b50505050905090810190601f16801561047c5780820380516001836020036101000a031916815260200191505b509250505060405180910390f35b610148600480360360408110156104a057600080fd5b5080359060200135610a9c565b610148600480360360408110156104c357600080fd5b50803590602001356001600160a01b0316610c0e565b61010a600480360360408110156104ef57600080fd5b5080359060200135610c3b565b6101006004803603604081101561051257600080fd5b81019060208101813564010000000081111561052d57600080fd5b82018360208201111561053f57600080fd5b8035906020019184600183028401116401000000008311171561056157600080fd5b91908080601f0160208091040260200160405190810160405280939291908181526020018383808284376000920191909152509295505091359250610c5d915050565b610148600480360360408110156105ba57600080fd5b506001600160a01b038135169060200135610d96565b6000818152602081905260409020546001600160a01b03163314610632576040805162461bcd60e51b81526020600482015260146024820152732737ba1032b632b1ba34b7b71031b932b0ba37b960611b604482015290519081900360640190fd5b60009081526020818152604080832060078101805460019081019091556001600160a01b0390951684526008019091529020805460ff19169091179055565b6001545b90565b6000828152602081815260408083206001600160a01b038516845260090190915281205460ff16156106f1576040805162461bcd60e51b815260206004820181905260248201527f5573657220616c726561647920726563656976656420766f746520746f6b656e604482015290519081900360640190fd5b6106fb8284610d96565b1515600114610751576040805162461bcd60e51b815260206004820181905260248201527f55736572206973206e6f7420616c6c6f77656420746f2067657420746f6b656e604482015290519081900360640190fd5b506000828152602081815260408083206001600160a01b03851684526009019091529020805460ff191660019081179091555b92915050565b60015481565b600060208181529181526040908190208054600180830180548551600261010094831615949094026000190190911692909204601f81018790048702830187019095528482526001600160a01b0390921694929390928301828280156108375780601f1061080c57610100808354040283529160200191610837565b820191906000526020600020905b81548152906001019060200180831161081a57829003601f168201915b50505060028085018054604080516020601f60001961010060018716150201909416959095049283018590048502810185019091528181529596959450909250908301828280156108c95780601f1061089e576101008083540402835291602001916108c9565b820191906000526020600020905b8154815290600101906020018083116108ac57829003601f168201915b5050505050908060030154908060040154908060050154908060070154905087565b6040805160e08101825233815260208082018781528284018790526060830186905260808301859052600060a0840181905260c08401819052600180548252818452948120845181546001600160a01b0319166001600160a01b03909116178155915180519195929361096393850192910190610e38565b506040820151805161097f916002840191602090910190610e38565b50606082015160038201556080820151600482015560a0820151600582015560c0909101516007909101555060018054808201909155949350505050565b6000828152602081815260408083206001600160a01b038516845260080190915290205460ff1692915050565b600082815260208181526040808320848452600601825291829020600190810180548451600293821615610100026000190190911692909204601f81018490048402830184019094528382526060939192909190830182828015610a8f5780601f10610a6457610100808354040283529160200191610a8f565b820191906000526020600020905b815481529060010190602001808311610a7257829003601f168201915b5050505050905092915050565b60008281526020819052604081206003015442906103e890048110610af9576040805162461bcd60e51b815260206004820152600e60248201526d115b1958dd1a5bdb88195b99195960921b604482015290519081900360640190fd5b6000848152602081905260409020600401546103e890048111610b5b576040805162461bcd60e51b8152602060048201526015602482015274115b1958dd1a5bdb88191a591b89dd081cdd185c9d605a1b604482015290519081900360640190fd5b600084815260208190526040902060050154831115610bb6576040805162461bcd60e51b8152602060048201526012602482015271496e76616c69642063616e6964616461746560701b604482015290519081900360640190fd5b600084815260208181526040808320868452600601909152902060020154610be590600163ffffffff610dd716565b600085815260208181526040808320878452600601909152902060020155506001905092915050565b6000828152602081815260408083206001600160a01b038516845260090190915290205460ff1692915050565b6000918252602082815260408084209284526006909201905290206002015490565b6000818152602081905260409020546001600160a01b03163314610cbf576040805162461bcd60e51b81526020600482015260146024820152732737ba1032b632b1ba34b7b71031b932b0ba37b960611b604482015290519081900360640190fd5b60008181526020819052604090206004015442908110610d26576040805162461bcd60e51b815260206004820152601a60248201527f43616e2774206164642061667465722073746172742074696d65000000000000604482015290519081900360640190fd5b60008281526020818152604080832060058101805460019081019182905583516060810185528281528086018a815281860188905292875260069093018552929094208151815593518051919493610d8393850192910190610e38565b5060408201518160020155905050505050565b6000818152602081815260408083206001600160a01b038616845260080190915281205460ff16151560011415610dcf57506001610784565b506000610784565b600082820183811015610e31576040805162461bcd60e51b815260206004820152601b60248201527f536166654d6174683a206164646974696f6e206f766572666c6f770000000000604482015290519081900360640190fd5b9392505050565b828054600181600116156101000203166002900490600052602060002090601f016020900481019282601f10610e7957805160ff1916838001178555610ea6565b82800160010185558215610ea6579182015b82811115610ea6578251825591602001919060010190610e8b565b50610eb2929150610eb6565b5090565b61067591905b80821115610eb25760008155600101610ebc56fea265627a7a72315820dcaae29dc44c9b76cf43278b9debaedc0a408f0e9f32340fc5d57804c372423e64736f6c63430005110032",
  "source": "pragma solidity 0.5.17;\n\nimport \"@openzeppelin/contracts/math/SafeMath.sol\";\n\ncontract Vote {\n    using SafeMath for uint256;\n\n    struct Candidate {\n        uint256 id;\n        string name;\n        uint256 voteCount;\n    }\n\n    struct Voter {\n        uint256 id;\n        address voterAddress;\n    }\n\n    // events\n    event votedEvent(uint256 indexed _candidateId);\n    event electionStarted(address this_address);\n\n    mapping(uint256 => Election) public elections;\n    uint256 public nrOfElections;\n\n    struct Election {\n        address authorityAddress;\n        string electionName;\n        string description;\n        //in seconds starting 1 jan 1970\n        uint256 endTime;\n        uint256 startTime;\n        // Store Candidates Count and mapping of candidates using id\n        uint256 nrOfCandidates;\n        mapping(uint256 => Candidate) candidates;\n        uint256 nrOfAllowedVoters;\n        mapping(address => bool) allowedVoters;\n        //Store addresses of users that voted\n        mapping(address => bool) usersThatReceivedToken;\n    }\n\n    constructor() public {\n        nrOfElections = 1;\n    }\n\n    function createElection(\n        string memory _electionName,\n        string memory _electionDescription,\n        uint256 _endTime,\n        uint256 _startTime\n    ) public returns (uint256) {\n        elections[nrOfElections] = Election(\n            msg.sender,\n            _electionName,\n            _electionDescription,\n            _endTime,\n            _startTime,\n            0,\n            0\n        );\n        nrOfElections += 1;\n        return nrOfElections - 1;\n    }\n\n    function getNrOfElections() public view returns(uint256){\n        return nrOfElections;\n    }\n\n    function isAllowed(address voterAddress, uint256 _electionId) public view returns(bool){\n        if (elections[_electionId].allowedVoters[voterAddress] == true){\n            return true;\n        }else{\n            return false;\n        }\n        \n    }\n\n    function addRegisteredVoter(address voterAddress, uint256 _electionId)\n        public\n    {\n        //only the voting authority has the right to add candidates\n        require(elections[_electionId].authorityAddress == msg.sender, \"Not election creator\");\n\n        elections[_electionId].nrOfAllowedVoters++;\n        elections[_electionId].allowedVoters[voterAddress] = true;\n    }\n\n    function addCandidate(string memory _name, uint256 _electionId) public {\n        require(elections[_electionId].authorityAddress == msg.sender, \"Not election creator\");\n        uint256 currentDatetime= now;\n        require(currentDatetime < elections[_electionId].startTime, \"Can't add after start time\");\n        \n        elections[_electionId].nrOfCandidates++;\n        elections[_electionId].candidates[\n            elections[_electionId].nrOfCandidates\n        ] = Candidate(elections[_electionId].nrOfCandidates, _name, 0);\n    }\n\n    function getAllowed(uint256 electionId, address add)\n        public\n        view\n        returns (bool )\n    {\n        return elections[electionId].allowedVoters[add];\n    }\n\n    function getCandidates(uint256 electionId, uint256 candidateId)\n        public\n        view\n        returns (string memory)\n    {\n        return elections[electionId].candidates[candidateId].name;\n    }\n\n    function getVoteCount(uint256 electionId, uint256 candidateId)\n        public\n        view\n        returns (uint256)\n    {\n        //uint256 currentDatetime= now;\n        //better to comment require for testing\n        //require (currentDatetime < elections[electionId].endTime/1000, \"Can't get votes before endTime\");\n        return elections[electionId].candidates[candidateId].voteCount;\n    }\n\n    function setVoteTokenReceived(uint256 electionId, address voterAddress)\n        public\n        returns (bool)\n    {\n        require (elections[electionId].usersThatReceivedToken[voterAddress] == false, \"User already received vote token\");\n        require (isAllowed(voterAddress, electionId) == true , \"User is not allowed to get token\" );\n        elections[electionId].usersThatReceivedToken[voterAddress] = true;\n        return true;\n    }\n\n    function receivedToken(uint256 electionId, address voterAddress) public view returns (bool){\n        return elections[electionId].usersThatReceivedToken[voterAddress];\n    }\n\n    function vote(uint256 _electionId, uint256 _candidateId)\n        public\n        returns (bool)\n    {\n        uint256 currentDatetime= now;\n        require(currentDatetime < elections[_electionId].endTime/1000, \"Election ended\");\n        require(currentDatetime > elections[_electionId].startTime/1000, \"Election didn't start\");\n        require (_candidateId >= 0 && _candidateId <= elections[_electionId].nrOfCandidates, \"Invalid canidadate\");\n        elections[_electionId].candidates[_candidateId].voteCount = elections[_electionId].candidates[_candidateId].voteCount.add(1);\n\n        return true;\n    }\n}\n",
  "sourcePath": "/home/eduard/2tornadooo/contracts/Vote.sol",
  "compiler": {
    "name": "solc",
    "version": "0.5.17+commit.d19bba13.Emscripten.clang"
  },
  "schemaVersion": "3.4.1",
  "updatedAt": "2021-06-12T20:06:21.074Z",
  "networkType": "ethereum",
  "devdoc": {
    "methods": {}
  },
  "userdoc": {
    "methods": {}
  }
}